:100000000C9446000C9450000C9450000C9450003A
:100010000C9450000C9450000C9450000C94500020
:100020000C9450000C9450000C9450000C94500010
:100030000C9450000C9450000C9450000C94500000
:100040000C9450000C9450000C9450000C945000F0
:100050000C9450000C9450000C9450000C945000E0
:100060000C9450000C9450000C9450000C945000D0
:100070000C9450000C9450000C9450000C945000C0
:100080000C9450000C9450000C94500011241FBE8E
:10009000CFEFD0E1DEBFCDBF0E948E000C9499005F
:1000A0000C94000020E030E008C00F920F900F92F7
:1000B0000F900F920F902F5F3F4F28173907A8F32B
:1000C00008950F931F93CF93DF938C01C0E0D0E08E
:1000D00005C088EE93E00E9452002196C017D10718
:1000E000C0F3DF91CF911F910F91089582E88FBDEA
:1000F0008AE18EBD10927A001DBC1CBC80E590E0A8
:100100009BBD8ABD84E690E097BD86BD16BE17BE36
:10011000089588E387BB80E388BB08950E94890027
:1001200084E690E00E9461000E94760080E090E00A
:060130000895F894FFCFD2
:00000001FF
