:100000000C9446000C9450000C9450000C9450003A
:100010000C9450000C9450000C9450000C94500020
:100020000C9450000C9450000C9450000C94500010
:100030000C9450000C9450000C9450000C94500000
:100040000C9450000C9450000C9450000C945000F0
:100050000C9450000C9450000C9450000C945000E0
:100060000C9450000C9450000C9450000C945000D0
:100070000C9450000C9450000C9450000C945000C0
:100080000C9450000C9450000C94500011241FBE8E
:10009000CFEFD0E1DEBFCDBF0E94C7000C94D100EE
:1000A0000C94000020E030E008C00F920F900F92F7
:1000B0000F900F920F902F5F3F4F28173907A8F32B
:1000C00008950F931F93CF93DF938C01C0E0D0E08E
:1000D00005C088EE93E00E9452002196C017D10718
:1000E000C0F3DF91CF911F910F910895CF93DF93CC
:1000F000199A88EE93E00E945200189A88EE93E0D5
:100100000E945200199888EE93E00E9452001898BD
:10011000C6E9D0E0189A8AE090E00E945200189850
:100120008AE090E00E9452002197A1F7199A88EE88
:1001300093E00E945200DF91CF910895CF93DF9317
:100140001998189888EE93E00E945200199A88EE48
:1001500093E00E945200189A8AE090E00E945200B8
:1001600019988AE090E00E9452001898C0E8D0E008
:10017000189A8AE090E00E94520018988AE090E075
:100180000E9452002197A1F7DF91CF9108958FEF40
:1001900082B9189819980E94760019980E949E00BA
:0601A000FDCFF894FFCF33
:00000001FF
