:100000000C9446000C9465000C9465000C946500FB
:100010000C9465000C9465000C9465000C946500CC
:100020000C9465000C9465000C9465000C946500BC
:100030000C9465000C9465000C9465000C946500AC
:100040000C9465000C9465000C9465000C9465009C
:100050000C9465000C942A010C9465000C946500C6
:100060000C9465000C9465000C9465000C9465007C
:100070000C9465000C9465000C9465000C9465006C
:100080000C9465000C9465000C94650011241FBE4F
:10009000CFEFD0E1DEBFCDBF11E0A0E0B1E0ECE3F7
:1000A000F4E000E00BBF02C007900D92AA33B10745
:1000B000D9F711E0AAE3B1E001C01D92AE33B10758
:1000C000E1F70E94C0010C941C020C94000020E097
:1000D00030E008C00F920F900F920F900F920F9088
:1000E0002F5F3F4F28173907A8F308950F931F93E9
:1000F000CF93DF938C01C0E0D0E005C088EE93E0A1
:100100000E9467002196C017D107C0F3DF91CF91FD
:100110001F910F91089582E88FBD8AE18EBD1092E4
:100120007A001DBC1CBC80E395E79BBD8ABD80E4C2
:100130009CE997BD86BD16BE17BE0895CF93DF9389
:10014000C5E6D0E088818460888384E690E00E94E0
:10015000670088818B7F8883DF91CF91089588E243
:1001600090E00E94760088E385BB0E949E0088E2B2
:1001700090E00E9467008CE085BB88E290E00E94DE
:1001800067000E949E0081E085BB82E090E00E94B3
:1001900076000E949E0086E085BB0E949E00089526
:1001A000E5E6F0E090819160908390819D7F90835F
:1001B00085BB0E949E000895909165009E7F90935C
:1001C0006500909165009D7F90936500662311F412
:1001D000805803C0613011F4805485BB0E949E009A
:1001E0000895EF92FF920F931F93DF93CF9300D068
:1001F000CDB7DEB749835A830E94DC0049815A811A
:100200008A0102C00E94D000F80181918F018823E9
:10021000C9F70F900F90CF91DF911F910F91FF9031
:10022000EF900895E5E6F0E090819E7F90839081C5
:100230009D7F908385BB0E949E0081E090E00E949C
:100240007600089583E487B988EC86B980EF8093BF
:10025000610008951F920F920FB60F9211248F9391
:100260009F9384B195B190933B0180933A0188ECC0
:1002700086B99F918F910F900FBE0F901F90189588
:10028000EF92FF920F931F93CF93DF9320913A0148
:1002900030913B0142E350E0249FC001259F900D27
:1002A000349F900D11246FEF73E00E940802709349
:1002B0003D0160933C01C90168EE73E00E940802B1
:1002C000F62E64E670E00E940802E62E8C018AE0B9
:1002D00061E00E94DC008F2D80630E94D0008BE0E3
:1002E00061E00E94DC008E2D80630E94D0008CE0D3
:1002F00061E00E94DC00CAE0D0E0C801BE010E94BB
:100300000802082F862F80630E94D0008DE061E0F4
:100310000E94DC00802F80630E94D00000913C018D
:1003200010913D018AE060E00E94DC00C801BE013E
:100330000E940802082F862F80630E94D0008BE065
:1003400060E040E051E00E94F1008CE060E00E943B
:10035000DC00802F80630E94D000DF91CF911F913D
:100360000F91FF90EF9008958FEF84BB809364000E
:1003700080EF8093610088E387BB80E388BB0895AA
:10038000CF93DF930E94B4010E94AF000E9422012C
:10039000789484E690E00E9476000E948B0081E0D1
:1003A0000E94120182E390E00E94760080E060E00B
:1003B0004AE151E00E94F10080E061E04AE251E050
:1003C0000E94F10088EC90E00E94760081E00E949B
:1003D000120184E690E00E94760080E060E042E056
:1003E00051E00E94F10080E061E040E151E00E94B4
:1003F000F100CEE1D0E080913A0190913B0122E002
:100400008835920710F0DBBDCABD0E944001F3CFD2
:10041000AA1BBB1B51E107C0AA1FBB1FA617B7072A
:1004200010F0A61BB70B881F991F5A95A9F7809546
:0C0430009095BC01CD010895F894FFCF19
:10043C002E00566F6C74616765203A2020205600A0
:10044C0041444320446174613A0048656C6C6F20F0
:10045C004D45474100000000000046726F6D20487A
:0A046C0079427573000000000000E3
:00000001FF
