:100000000C9446000C9465000C9465000C946500FB
:100010000C9465000C9465000C9465000C946500CC
:100020000C9465000C9465000C9465000C946500BC
:100030000C9465000C9465000C9465000C946500AC
:100040000C9465000C9465000C9465000C9465009C
:100050000C9465000C949F010C9465000C94650051
:100060000C9465000C9465000C9465000C9465007C
:100070000C9465000C9465000C9465000C9465006C
:100080000C9465000C9465000C94650011241FBE4F
:10009000CFEFD0E1DEBFCDBF11E0A0E0B1E0E4EFF3
:1000A000F5E000E00BBF02C007900D92AC33B10742
:1000B000D9F712E0ACE3B1E001C01D92A234B10760
:1000C000E1F70E949B020C94F8020C94000020E0DF
:1000D00030E008C00F920F900F920F900F920F9088
:1000E0002F5F3F4F28173907A8F308950F931F93E9
:1000F000CF93DF938C01C0E0D0E005C088EE93E0A1
:100100000E9467002196C017D107C0F3DF91CF91FD
:100110001F910F910895CF93DF93C5E6D0E08881BA
:100120008460888384E690E00E94670088818B7FEA
:100130008883DF91CF91089588E290E00E94760055
:1001400088E385BB0E948B0088E290E00E946700F4
:100150008CE085BB88E290E00E9467000E948B00E3
:1001600081E085BB82E090E00E9476000E948B00D7
:1001700086E085BB0E948B000895E5E6F0E0908163
:100180009160908390819D7F908385BB0E948B00BE
:100190000895909165009E7F909365009091650011
:1001A0009D7F90936500662311F4805803C06130F1
:1001B00011F4805485BB0E948B000895EF92FF924A
:1001C0000F931F93DF93CF9300D0CDB7DEB7498352
:1001D0005A830E94C90049815A818A0102C00E9443
:1001E000BD00F80181918F018823C9F70F900F900E
:1001F000CF91DF911F910F91FF90EF900895E5E669
:10020000F0E090819E7F908390819D7F908385BB5D
:100210000E948B0081E090E00E947600089582E2C7
:100220008FBD8AE18EBD10927A001DBC1CBC88E98E
:1002300098E099BD88BD80E49CE997BD86BD16BE57
:1002400017BE10927D0010927C00089582E487B959
:1002500088EC86B90895EF92FF920F931F93CF9386
:10026000DF932091C0013091C10142E350E0249F0F
:10027000C001259F900D349F900D11246FEF73E006
:100280000E94E4027093410260934002C90168EE4B
:1002900073E00E94E402F62E64E670E00E94E4023D
:1002A000E62E8C018AE061E00E94C9008F2D8063F8
:1002B0000E94BD008BE061E00E94C9008E2D80632A
:1002C0000E94BD008CE061E00E94C900CAE0D0E05D
:1002D000C801BE010E94E402082F862F80630E949D
:1002E000BD008DE061E00E94C900802F80630E9404
:1002F000BD0000914002109141028AE060E00E943E
:10030000C900C801BE010E94E402082F862F806345
:100310000E94BD008BE060E040E051E00E94DE0002
:100320008CE060E00E94C900802F80630E94BD00C5
:10033000DF91CF911F910F91FF90EF9008951F9241
:100340000F920FB60F9211248F939F9384B195B1A2
:1003500090933F0180933E0188EC86B99F918F91E5
:100360000F900FBE0F901F901895CF93DF93809141
:10037000620082608093620088EE93E00E946700D2
:100380008091620081608093620088EE93E00E9419
:100390006700809162008D7F8093620088EE93E019
:1003A0000E946700809162008E7F80936200C6E9A0
:1003B000D0E0809162008160809362008AE090E0EA
:1003C0000E946700809162008E7F809362008AE0C5
:1003D00090E00E946700219761F78091620082603F
:1003E0008093620088EE93E00E946700DF91CF91D6
:1003F0000895CF93DF93809162008D7F8093620098
:10040000809162008E7F8093620088EE93E00E946C
:1004100067008091620082608093620088EE93E0C2
:100420000E946700809162008160809362008AE090
:1004300090E00E946700809162008D7F809362004F
:100440008AE090E00E946700809162008E7F809336
:100450006200C0E4D1E0809162008160809362001C
:100460008AE090E00E946700809162008E7F809316
:1004700062008AE090E00E94670080913E019091C6
:100480003F018993999323E0C433D20721F78091E8
:100490003602909137022091340230913502820F5A
:1004A000931F2091380230913902820F931F2091BF
:1004B0003A0230913B02820F931F20913C0230910F
:1004C0003D02820F931F29E0843C920720F480EFC5
:1004D0009AE099BD88BD8091440190914501209199
:1004E000420130914301820F931F209146013091C8
:1004F0004701820F931F2091480130914901820FDB
:10050000931F20914A0130914B01820F931F29E0E4
:10051000843C920720F488E097E099BD88BDDF9184
:10052000CF9108958FEF84BB8093640093EF9093F5
:10053000610087BB08950E9492020E949C000E9465
:1005400026010E940F01809162008E7F80936200DD
:10055000809162008D7F809362000E94B50180913E
:1005600062008D7F80936200789481E00E94FF009A
:1005700082E390E00E94760080E060E04BE151E091
:100580000E94DE0080E061E04BE251E00E94DE006C
:1005900088EC90E00E94760081E00E94FF0084E6F3
:1005A00090E00E94760080E060E042E051E00E942E
:1005B000DE0080E061E041E151E00E94DE000E9447
:1005C000F9010E942B01FBCFAA1BBB1B51E107C005
:1005D000AA1FBB1FA617B70710F0A61BB70B881FD3
:1005E000991F5A95A9F780959095BC01CD01089562
:0405F000F894FFCFAD
:1005F4002E00566F6C74616765203A2020202056C7
:100604000041444320446174613A0048656C6C6F56
:10061400204D45474100000000000046726F6D20E8
:0C062400487942757300000000000000DF
:00000001FF
