:100000000C9446000C9458000C9458000C94580022
:100010000C9458000C9458000C9458000C94580000
:100020000C9458000C9458000C9458000C945800F0
:100030000C9458000C9458000C9458000C945800E0
:100040000C9458000C9458000C9458000C945800D0
:100050000C9458000C9483000C9458000C94580095
:100060000C9458000C9458000C9458000C945800B0
:100070000C9458000C9458000C9458000C945800A0
:100080000C9458000C9458000C94580011241FBE76
:10009000CFEFD0E1DEBFCDBF12E0A0E0B1E001C004
:1000A0001D92A230B107E1F70E9499010C94B401AE
:1000B0000C94000020E030E008C00F920F900F92E7
:1000C0000F900F920F902F5F3F4F28173907A8F31B
:1000D00008950F931F93CF93DF938C01C0E0D0E07E
:1000E00005C088EE93E00E945A002196C017D10700
:1000F000C0F3DF91CF911F910F91089582E487B9EA
:1001000088EC86B908951F920F920FB60F921124B2
:100110008F939F9384B195B19093010180930001D7
:1001200088EC86B99F918F910F900FBE0F901F9012
:100130001895CF93DF938091620082608093620074
:1001400088EE93E00E945A00809162008160809363
:10015000620088EE93E00E945A00809162008D7FD9
:100160008093620088EE93E00E945A0080916200C2
:100170008E7F80936200C6E9D0E08091620081604A
:10018000809362008AE090E00E945A0080916200B1
:100190008E7F809362008AE090E00E945A0021974F
:1001A00061F78091620082608093620088EE93E044
:1001B0000E945A00DF91CF91089582EA8FBD8AE1B3
:1001C0008EBD10927A001DBC1CBC1BBC1ABC88E9F9
:1001D00098E099BD88BD80E49CE997BD86BD16BEB8
:1001E00017BE10927D0010927C000895CF93DF938C
:1001F000809162008D7F80936200809162008E7F8B
:100200008093620088EE93E00E945A008091620021
:1002100082608093620088EE93E00E945A00809191
:1002200062008160809362008AE090E00E945A0040
:10023000809162008D7F809362008AE090E00E944E
:100240005A00809162008E7F80936200C2E0D1E00C
:10025000809162008160809362008AE090E00E9459
:100260005A00809162008E7F809362008AE090E065
:100270000E945A0080910001909101018993999305
:1002800022E0C63FD20721F78091F8019091F90151
:100290002091F6013091F701820F931F2091FA010E
:1002A0003091FB01820F931F2091FC013091FD01E1
:1002B000820F931F2091FE013091FF01820F931F47
:1002C00029E0843C920720F480EF9AE099BD88BD34
:1002D0008091060190910701209104013091050160
:1002E000820F931F2091080130910901820F931F03
:1002F00020910A0130910B01820F931F20910C0174
:1003000030910D01820F931F29E0843C920720F465
:1003100088E097E099BD88BDDF91CF91089588E38B
:1003200087BB80E388BB80E487BB83EF8093610059
:1003300008950E948F010E94DD000E947E0080913E
:1003400062008E7F80936200809162008D7F809337
:1003500062000E949900809162008D7F809362000C
:0C03600078940E94F600FDCFF894FFCFC7
:00000001FF
