:100000000C9446000C9450000C9450000C9450003A
:100010000C9450000C9450000C9450000C94500020
:100020000C9450000C9450000C9450000C94500010
:100030000C9450000C9450000C9450000C94500000
:100040000C9450000C9450000C9450000C945000F0
:100050000C9450000C9450000C9450000C945000E0
:100060000C9450000C9450000C9450000C945000D0
:100070000C9450000C9450000C9450000C945000C0
:100080000C9450000C9450000C94500011241FBE8E
:10009000CFEFD0E1DEBFCDBF0E9498000C949F004F
:1000A0000C94000020E030E008C00F920F900F92F7
:1000B0000F900F920F902F5F3F4F28173907A8F32B
:1000C00008950F931F93CF93DF938C01C0E0D0E08E
:1000D00005C088EE93E00E9452002196C017D10718
:1000E000C0F3DF91CF911F910F91089582E8809323
:1000F0008B008AE180938A0010928C001092890014
:100100001092880088E893E190938700809386009E
:1001100080E49CE9909381008093800016BE17BE16
:1001200010927D0010927C0008958FEF82B908959F
:100130008FEF82B90E94760080E090E00895F894F5
:02014000FFCFEF
:00000001FF
