:100000000C9446000C9450000C9450000C9450003A
:100010000C9450000C9450000C9450000C94500020
:100020000C9450000C9450000C9450000C94500010
:100030000C9450000C9450000C9450000C94500000
:100040000C9450000C9450000C9450000C945000F0
:100050000C9450000C9450000C9450000C945000E0
:100060000C9450000C9450000C9450000C945000D0
:100070000C9450000C9450000C9450000C945000C0
:100080000C9450000C9450000C94500011241FBE8E
:10009000CFEFD0E1DEBFCDBF0E9490000C94B8003E
:1000A0000C94000020E030E008C00F920F900F92F7
:1000B0000F900F920F902F5F3F4F28173907A8F32B
:1000C00008950F931F93CF93DF938C01C0E0D0E08E
:1000D00005C088EE93E00E9452002196C017D10718
:1000E000C0F3DF91CF911F910F91089582E28FBDF0
:1000F0008AE18EBD10927A001DBC1CBC88E998E094
:1001000099BD88BD80E49CE997BD86BD16BE17BE2B
:1001100010927D0010927C0008958FEF87BB0895A8
:10012000CF93DF938FEF87BB0E94760084E690E049
:100130000E9461001AC0D9BDC8BD84E690E00E944B
:100140006100CC59DF4F8AE0C13FD807A0F3C0EF70
:10015000DAE0D9BDC8BD84E690E00E946100C456D3
:10016000D04086E0C43AD807A1F7C8E0D7E0EBCF8B
:04017000F894FFCF31
:00000001FF
