:100000000C9446000C9465000C9465000C946500FB
:100010000C9465000C9465000C9465000C946500CC
:100020000C9465000C9465000C9465000C946500BC
:100030000C9465000C9465000C9465000C946500AC
:100040000C9465000C9465000C9465000C9465009C
:100050000C9465000C94ED000C9465000C94650004
:100060000C9465000C9465000C9465000C9465007C
:100070000C9465000C9465000C9465000C9465006C
:100080000C9465000C9465000C94650011241FBE4F
:10009000CFEFD0E1DEBFCDBF11E0A0E0B1E0EEE5F3
:1000A000F4E000E00BBF02C007900D92A032B10750
:1000B000D9F712E0A0E2B1E001C01D92A632B1076B
:1000C000E1F70E94F8010C942D020C94000020E04E
:1000D00030E008C00F920F900F920F900F920F9088
:1000E0002F5F3F4F28173907A8F308950F931F93E9
:1000F000CF93DF938C01C0E0D0E005C088EE93E0A1
:100100000E9467002196C017D107C0F3DF91CF91FD
:100110001F910F910895CF93DF93C5E6D0E08881BA
:100120008460888384E690E00E94670088818B7FEA
:100130008883DF91CF91089582E28FBD8AE18EBDE1
:1001400010927A001DBC1CBC88E998E099BD88BD5E
:1001500080E49CE997BD86BD16BE17BE10927D0057
:1001600010927C00089582E88FBD8AE18EBD1092C6
:100170007A001DBC1CBC85E590E09BBD8ABD84E671
:1001800090E097BD86BD16BE17BE089582E88093A5
:100190008B008AE180938A0010928C001092890073
:1001A0001092880088E29AE09093870080938600FE
:1001B00080E49CE9909381008093800016BE17BE76
:1001C00010927D0010927C00089582E487B988EC3B
:1001D00086B980EF8093610008951F920F920FB649
:1001E0000F9211248F939F9384B195B19093230123
:1001F0008093220188EC86B99F918F910F900FBE5A
:100200000F901F901895CF93DF93809162008260CA
:100210008093620088EE93E00E9467008091620004
:1002200081608093620088EE93E00E946700809175
:1002300062008D7F8093620088EE93E00E946700E9
:10024000809162008E7F80936200C6E9D0E0809149
:1002500062008160809362008AE090E00E94670003
:10026000809162008E7F809362008AE090E00E941D
:100270006700219761F7809162008260809362003D
:1002800088EE93E00E946700DF91CF910895CF93AD
:10029000DF93809162008D7F809362008091620085
:1002A0008E7F8093620088EE93E00E9467008091C9
:1002B000620082608093620088EE93E00E94670093
:1002C000809162008160809362008AE090E00E94E9
:1002D0006700809162008D7F809362008AE090E0E9
:1002E0000E946700809162008E7F80936200C4E26A
:1002F000D1E0809162008160809362008AE090E0AA
:100300000E946700809162008E7F809362008AE085
:1003100090E00E94670080912201909123018993CF
:10032000999322E0C432D20721F78091180290916C
:1003300019022091160230911702820F931F20910B
:100340001A0230911B02820F931F20911C023091E0
:100350001D02820F931F20911E0230911F02820FF7
:10036000931F2091200230912102820F931F2BE0D6
:10037000883B920720F480EF9AE099BD88BD809178
:100380002801909129012091260130912701820FA7
:10039000931F20912A0130912B01820F931F2091EE
:1003A0002C0130912D01820F931F20912E0130914D
:1003B0002F01820F931F2091300130913101820F64
:1003C000931F2BE0883B920720F488E097E099BDCB
:1003D00088BDDF91CF9108958FEF84BB8093640037
:1003E00090EF9093610087BB90E698BB82B9089527
:1003F000CF93DF930E94EC010E94E5000E949C00D5
:100400000E94C600809162008E7F8093620080917E
:1004100062008D7F809362000E94030180916200E0
:100420008D7F80936200789484E690E00E9476004D
:100430000E94B30082E390E00E947600CEE1D0E01B
:10044000809122019091230122E08835920710F0DB
:0E045000DBBDCABD0E944701F3CFF894FFCF79
:10045E0048656C6C6F204D45474100000000000060
:10046E0046726F6D204879427573000000000000DF
:00000001FF
