:100000000C9446000C9465000C9465000C946500FB
:100010000C9465000C9465000C9465000C946500CC
:100020000C9465000C9465000C9465000C946500BC
:100030000C9465000C9465000C9465000C946500AC
:100040000C9465000C9465000C9465000C9465009C
:100050000C9465000C9417010C9465000C946500D9
:100060000C9465000C9465000C9465000C9465007C
:100070000C9465000C9465000C9465000C9465006C
:100080000C9465000C9465000C94650011241FBE4F
:10009000CFEFD0E1DEBFCDBF11E0A0E0B1E0E6EEF2
:1000A000F3E000E00BBF02C007900D92AA33B10746
:1000B000D9F711E0AAE3B1E001C01D92AE33B10758
:1000C000E1F70E94A9010C94F1010C94000020E0DA
:1000D00030E008C00F920F900F920F900F920F9088
:1000E0002F5F3F4F28173907A8F308950F931F93E9
:1000F000CF93DF938C01C0E0D0E005C088EE93E0A1
:100100000E9467002196C017D107C0F3DF91CF91FD
:100110001F910F910895CF93DF93C5E6D0E08881BA
:100120008460888384E690E00E94670088818B7FEA
:100130008883DF91CF91089588E290E00E94760055
:1001400088E385BB0E948B0088E290E00E946700F4
:100150008CE085BB88E290E00E9467000E948B00E3
:1001600081E085BB82E090E00E9476000E948B00D7
:1001700086E085BB0E948B000895E5E6F0E0908163
:100180009160908390819D7F908385BB0E948B00BE
:100190000895909165009E7F909365009091650011
:1001A0009D7F90936500662311F4805803C06130F1
:1001B00011F4805485BB0E948B000895EF92FF924A
:1001C0000F931F93DF93CF9300D0CDB7DEB7498352
:1001D0005A830E94C90049815A818A0102C00E9443
:1001E000BD00F80181918F018823C9F70F900F900E
:1001F000CF91DF911F910F91FF90EF900895E5E669
:10020000F0E090819E7F908390819D7F908385BB5D
:100210000E948B0081E090E00E947600089583E4C4
:1002200087B988EC86B980EF8093610008951F92AA
:100230000F920FB60F9211248F939F9384B195B1B3
:1002400090933B0180933A0188EC86B99F918F91FE
:100250000F900FBE0F901F901895EF92FF920F9383
:100260001F93CF93DF9320913A0130913B0142E3FA
:1002700050E0249FC001259F900D349F900D1124C4
:100280006FEF73E00E94DD0170933D0160933C01CC
:10029000C90168EE73E00E94DD01F62E64E670E0AD
:1002A0000E94DD01E62E8C018AE061E00E94C90017
:1002B0008F2D80630E94BD008BE061E00E94C90029
:1002C0008E2D80630E94BD008CE061E00E94C90019
:1002D000CAE0D0E0C801BE010E94DD01082F862FD0
:1002E00080630E94BD008DE061E00E94C900802F04
:1002F00080630E94BD0000913C0110913D018AE0A5
:1003000060E00E94C900C801BE010E94DD01082F03
:10031000862F80630E94BD008BE060E040E051E0EA
:100320000E94DE008CE060E00E94C900802F8063A4
:100330000E94BD00DF91CF911F910F91FF90EF9030
:1003400008958FEF84BB8093640080EF80936100F9
:1003500008950E94A1010E949C000E940F017894C0
:1003600081E00E94FF0082E390E00E94760080E03E
:1003700060E04AE151E00E94DE0080E061E04AE294
:1003800051E00E94DE0088EC90E00E94760081E05F
:100390000E94FF0084E690E00E94760080E060E02A
:1003A00042E051E00E94DE0080E061E040E151E087
:1003B0000E94DE000E942D01FDCFAA1BBB1B51E154
:1003C00007C0AA1FBB1FA617B70710F0A61BB70BC5
:1003D000881F991F5A95A9F780959095BC01CD016A
:0603E0000895F894FFCF20
:1003E6002E00566F6C74616765203A2020205600F7
:1003F60041444320446174613A0048656C6C6F2047
:100406004D45474100000000000046726F6D2048D0
:0A0416007942757300000000000039
:00000001FF
