:100000000C9446000C9465000C9465000C946500FB
:100010000C9465000C9465000C9465000C946500CC
:100020000C9465000C9465000C9465000C946500BC
:100030000C9465000C9465000C9465000C946500AC
:100040000C9465000C9465000C9465000C9465009C
:100050000C9465000C94A9000C9465000C94650048
:100060000C9465000C9465000C9465000C9465007C
:100070000C9465000C9465000C9465000C9465006C
:100080000C9465000C9465000C94650011241FBE4F
:10009000CFEFD0E1DEBFCDBF11E0A0E0B1E0EEE8F0
:1000A000F3E000E00BBF02C007900D92A032B10751
:1000B000D9F712E0A0E2B1E001C01D92A632B1076B
:1000C000E1F70E94A4010C94C5010C94000020E00B
:1000D00030E008C00F920F900F920F900F920F9088
:1000E0002F5F3F4F28173907A8F308950F931F93E9
:1000F000CF93DF938C01C0E0D0E005C088EE93E0A1
:100100000E9467002196C017D107C0F3DF91CF91FD
:100110001F910F91089582EA8FBD8AE18EBD1092E2
:100120007A001DBC1CBC80E49CE99BBD8ABD28E90B
:1001300038E039BD28BD97BD86BD16BE17BE1092EA
:100140007D0010927C00089582E487B988EC86B91E
:1001500008951F920F920FB60F9211248F939F93C1
:1001600084B195B1909323018093220188EC86B9E4
:100170009F918F910F900FBE0F901F901895CF9366
:10018000DF938091620082608093620088EE93E04A
:100190000E9467008091620081608093620088EE17
:1001A00093E00E946700809162008D7F80936200DF
:1001B00088EE93E00E946700809162008E7F8093BA
:1001C0006200C6E9D0E080916200816080936200A5
:1001D0008AE090E00E946700809162008E7F8093A9
:1001E00062008AE090E00E946700219761F78091A9
:1001F000620082608093620088EE93E00E94670054
:10020000DF91CF910895CF93DF93809162008D7F2E
:1002100080936200809162008E7F8093620088EEFE
:1002200093E00E9467008091620082608093620088
:1002300088EE93E00E946700809162008160809365
:1002400062008AE090E00E946700809162008D7FEA
:10025000809362008AE090E00E94670080916200D3
:100260008E7F80936200C4E2D1E080916200816061
:10027000809362008AE090E00E94670080916200B3
:100280008E7F809362008AE090E00E9467008091F8
:100290002201909123018993999322E0C432D207DD
:1002A00021F7809128019091290120912601309118
:1002B0002701820F931F20912A0130912B01820F79
:1002C000931F20912C0130912D01820F931F2091BB
:1002D0002E0130912F01820F931F29E0843C920759
:1002E00020F488E097E099BD88BD80911A02909132
:1002F0001B022091180230911902820F931F209146
:100300001C0230911D02820F931F20911E0230911A
:100310001F02820F931F2091200230912102820F31
:10032000931F29E0843C920720F480EF9AE099BD66
:1003300088BDDF91CF91089583EF809361008FEFA7
:1003400087BB80E388BB08950E949C0184E690E00F
:100350000E9476000E948B0084E690E00E94760066
:10036000809162008E7F80936200809162008D7F19
:10037000809362000E94BF00809162008D7F809315
:0E038000620078940E940301FDCFF894FFCF35
:10038E0048656C6C6F204D45474100000000000031
:10039E0046726F6D204879427573000000000000B0
:00000001FF
