:100000000C944A000C9454000C9454000C9454002A
:100010000C9454000C9454000C9454000C94540010
:100020000C9454000C9454000C9454000C94540000
:100030000C9454000C9454000C9454000C945400F0
:100040000C9454000C9454000C9454000C945400E0
:100050000C9454000C9454000C9454000C945400D0
:100060000C9454000C9454000C9454000C945400C0
:100070000C9454000C9454000C9454000C945400B0
:100080000C9454000C9454000C9454000C945400A0
:100090000C94540011241FBECFEFD0E1DEBFCDBFC2
:1000A0000E947D000C9493000C94000020E030E04E
:1000B00008C00F920F900F920F900F920F902F5F2A
:1000C0003F4F28173907A8F308950F931F93CF9335
:1000D000DF938C01C0E0D0E005C088EE93E00E9481
:1000E00056002196C017D107C0F3DF91CF911F9121
:1000F0000F9108958FEF81B908951F938FEF81B904
:100100001EEF812F809582B988EE93E00E946500F2
:100110001F3719F0110F1F5F01C01EEF84E690E03A
:0A0120000E946500EECFF894FFCFB7
:00000001FF
